:0400000016EF05F002
:10080000003530250032352500373525000094921B
:10081000000E956E000E936E000E966E938093827E
:1008200093849386C70ECB6E000ECA6E000ECC6EFC
:10083000CA8472EC04F0010E01EC05F081B023EFE4
:1008400004F025EF04F032EF04F0800E01EC05F027
:10085000020E076E080E086EA0EC04F00C0EBA6EC5
:10086000000EBB6E81B237EF04F039EF04F046EFB3
:1008700004F0800E01EC05F0050E076E080E086E00
:10088000A0EC04F00C0EBA6E320EBB6E81B44BEFCE
:1008900004F04DEF04F05AEF04F0800E01EC05F087
:1008A000010E076E080E086EA0EC04F00C0EBA6E76
:1008B0004B0EBB6E81B65FEF04F061EF04F01EEFEC
:1008C00004F0800E01EC05F0090E076E080E086EAC
:1008D000A0EC04F00C0EBA6E960EBB6E1EEF04F088
:1008E00000EF00F084928490000E026E140E016EF0
:1008F000C8EC04F08482380E01EC05F0000E026EA4
:10090000050E016EC8EC04F0380E01EC05F0000E87
:10091000026E010E016EC8EC04F0380E01EC05F019
:10092000080E01EC05F00F0E01EC05F0010E01ECD4
:1009300005F0380E01EC05F0800E01EC05F0120018
:10094000000E0B6EB3EF04F00B500724096E000E7F
:1009500008200A6E09C0F6FF0AC0F7FF0800F5502C
:10096000ECEC04F00B2A0B500724096E000E082053
:100970000A6E09C0F6FF0AC0F7FF0800F55000092B
:10098000D8A4C5EF04F0C7EF04F0A4EF04F0120000
:10099000000E046E000E036EE0EF04F0000E056E14
:1009A00000F000F000F000F000F0052AC70E05642A
:1009B000DCEF04F0DEEF04F0D0EF04F0034A042A89
:1009C0000150035C02500458D8A0E9EF04F0EBEFAB
:1009D00004F0CEEF04F01200066E848206501DEC87
:1009E00005F08480000E026E030E016EC8EC04F068
:1009F0008492000E026E030E016EC8EC04F0848235
:100A00001200066E848206501DEC05F08490000EE4
:100A1000026E030E016EC8EC04F08492000E026EAA
:100A2000030E016EC8EC04F084821200000EF86E12
:100A3000080EF76E000107EF04F0016E01C083FF9E
:020A40001200A2
:020000040020DA
:08000000FFFFFFFFFFFFFFFF00
:020000040030CA
:0E000000290C181EFF8180FF0FC00FE00F407B
:00000001FF
